{
  "contractName": "Samsung",
  "abi": [
    {
      "constant": true,
      "inputs": [],
      "name": "productowner",
      "outputs": [
        {
          "name": "",
          "type": "address"
        }
      ],
      "payable": false,
      "stateMutability": "view",
      "type": "function"
    },
    {
      "constant": true,
      "inputs": [],
      "name": "productCount",
      "outputs": [
        {
          "name": "",
          "type": "uint256"
        }
      ],
      "payable": false,
      "stateMutability": "view",
      "type": "function"
    },
    {
      "inputs": [],
      "payable": false,
      "stateMutability": "nonpayable",
      "type": "constructor"
    },
    {
      "anonymous": false,
      "inputs": [
        {
          "indexed": false,
          "name": "productname",
          "type": "string"
        },
        {
          "indexed": false,
          "name": "productheight",
          "type": "string"
        },
        {
          "indexed": false,
          "name": "productwidth",
          "type": "string"
        },
        {
          "indexed": false,
          "name": "productwarranty",
          "type": "string"
        },
        {
          "indexed": false,
          "name": "productothers",
          "type": "string"
        },
        {
          "indexed": false,
          "name": "productprice",
          "type": "uint256"
        },
        {
          "indexed": false,
          "name": "productowner",
          "type": "address"
        },
        {
          "indexed": false,
          "name": "productpurchased",
          "type": "bool"
        }
      ],
      "name": "addproduct",
      "type": "event"
    },
    {
      "anonymous": false,
      "inputs": [
        {
          "indexed": false,
          "name": "productid",
          "type": "uint256"
        },
        {
          "indexed": false,
          "name": "productname",
          "type": "string"
        },
        {
          "indexed": false,
          "name": "productheight",
          "type": "string"
        },
        {
          "indexed": false,
          "name": "productwidth",
          "type": "string"
        },
        {
          "indexed": false,
          "name": "productprice",
          "type": "uint256"
        },
        {
          "indexed": false,
          "name": "productbuyer",
          "type": "address"
        }
      ],
      "name": "buyproduct",
      "type": "event"
    },
    {
      "constant": false,
      "inputs": [
        {
          "name": "_productid",
          "type": "uint256"
        },
        {
          "name": "_productname",
          "type": "string"
        },
        {
          "name": "_productheight",
          "type": "string"
        },
        {
          "name": "_productwidth",
          "type": "string"
        },
        {
          "name": "_productwarranty",
          "type": "string"
        },
        {
          "name": "_productothers",
          "type": "string"
        },
        {
          "name": "_productprice",
          "type": "uint256"
        }
      ],
      "name": "addproducts",
      "outputs": [],
      "payable": false,
      "stateMutability": "nonpayable",
      "type": "function"
    },
    {
      "constant": true,
      "inputs": [
        {
          "name": "_productid",
          "type": "uint256"
        }
      ],
      "name": "getProduct",
      "outputs": [
        {
          "name": "_productname",
          "type": "string"
        },
        {
          "name": "_productheight",
          "type": "string"
        },
        {
          "name": "_productwidth",
          "type": "string"
        },
        {
          "name": "_productwarranty",
          "type": "string"
        },
        {
          "name": "_productothers",
          "type": "string"
        },
        {
          "name": "_productprice",
          "type": "uint256"
        }
      ],
      "payable": false,
      "stateMutability": "view",
      "type": "function"
    },
    {
      "constant": false,
      "inputs": [
        {
          "name": "_productid",
          "type": "uint256"
        }
      ],
      "name": "buyproducts",
      "outputs": [],
      "payable": true,
      "stateMutability": "payable",
      "type": "function"
    },
    {
      "constant": true,
      "inputs": [
        {
          "name": "_productid",
          "type": "uint256"
        }
      ],
      "name": "getBuyer",
      "outputs": [
        {
          "name": "_productbuyer",
          "type": "address"
        }
      ],
      "payable": false,
      "stateMutability": "view",
      "type": "function"
    },
    {
      "constant": false,
      "inputs": [
        {
          "name": "_productid",
          "type": "uint256"
        }
      ],
      "name": "receiveSeller",
      "outputs": [],
      "payable": true,
      "stateMutability": "payable",
      "type": "function"
    }
  ],
  "bytecode": "0x60806040526000805534801561001457600080fd5b5033600160006101000a81548173ffffffffffffffffffffffffffffffffffffffff021916908373ffffffffffffffffffffffffffffffffffffffff1602179055506114f0806100656000396000f3fe6080604052600436106100705760003560e01c8063b0a729981161004e578063b0a729981461047f578063b9db15b4146104ad578063e0f6ef8714610718578063fd2cc4861461074357610070565b8063212acee3146100755780633e10b205146103ad5780635bf608b814610404575b600080fd5b34801561008157600080fd5b506103ab600480360360e081101561009857600080fd5b8101908080359060200190929190803590602001906401000000008111156100bf57600080fd5b8201836020820111156100d157600080fd5b803590602001918460018302840111640100000000831117156100f357600080fd5b91908080601f016020809104026020016040519081016040528093929190818152602001838380828437600081840152601f19601f8201169050808301925050505050505091929192908035906020019064010000000081111561015657600080fd5b82018360208201111561016857600080fd5b8035906020019184600183028401116401000000008311171561018a57600080fd5b91908080601f016020809104026020016040519081016040528093929190818152602001838380828437600081840152601f19601f820116905080830192505050505050509192919290803590602001906401000000008111156101ed57600080fd5b8201836020820111156101ff57600080fd5b8035906020019184600183028401116401000000008311171561022157600080fd5b91908080601f016020809104026020016040519081016040528093929190818152602001838380828437600081840152601f19601f8201169050808301925050505050505091929192908035906020019064010000000081111561028457600080fd5b82018360208201111561029657600080fd5b803590602001918460018302840111640100000000831117156102b857600080fd5b91908080601f016020809104026020016040519081016040528093929190818152602001838380828437600081840152601f19601f8201169050808301925050505050505091929192908035906020019064010000000081111561031b57600080fd5b82018360208201111561032d57600080fd5b8035906020019184600183028401116401000000008311171561034f57600080fd5b91908080601f016020809104026020016040519081016040528093929190818152602001838380828437600081840152601f19601f82011690508083019250505050505050919291929080359060200190929190505050610771565b005b3480156103b957600080fd5b506103c2610bcf565b604051808273ffffffffffffffffffffffffffffffffffffffff1673ffffffffffffffffffffffffffffffffffffffff16815260200191505060405180910390f35b34801561041057600080fd5b5061043d6004803603602081101561042757600080fd5b8101908080359060200190929190505050610bf5565b604051808273ffffffffffffffffffffffffffffffffffffffff1673ffffffffffffffffffffffffffffffffffffffff16815260200191505060405180910390f35b6104ab6004803603602081101561049557600080fd5b8101908080359060200190929190505050610c35565b005b3480156104b957600080fd5b506104e6600480360360208110156104d057600080fd5b8101908080359060200190929190505050610d27565b60405180806020018060200180602001806020018060200187815260200186810386528c818151815260200191508051906020019080838360005b8381101561053c578082015181840152602081019050610521565b50505050905090810190601f1680156105695780820380516001836020036101000a031916815260200191505b5086810385528b818151815260200191508051906020019080838360005b838110156105a2578082015181840152602081019050610587565b50505050905090810190601f1680156105cf5780820380516001836020036101000a031916815260200191505b5086810384528a818151815260200191508051906020019080838360005b838110156106085780820151818401526020810190506105ed565b50505050905090810190601f1680156106355780820380516001836020036101000a031916815260200191505b50868103835289818151815260200191508051906020019080838360005b8381101561066e578082015181840152602081019050610653565b50505050905090810190601f16801561069b5780820380516001836020036101000a031916815260200191505b50868103825288818151815260200191508051906020019080838360005b838110156106d45780820151818401526020810190506106b9565b50505050905090810190601f1680156107015780820380516001836020036101000a031916815260200191505b509b50505050505050505050505060405180910390f35b34801561072457600080fd5b5061072d6110c8565b6040518082815260200191505060405180910390f35b61076f6004803603602081101561075957600080fd5b81019080803590602001909291905050506110ce565b005b600160009054906101000a900473ffffffffffffffffffffffffffffffffffffffff1673ffffffffffffffffffffffffffffffffffffffff163373ffffffffffffffffffffffffffffffffffffffff16146107cb57600080fd5b8660026000898152602001908152602001600020600001819055508560026000898152602001908152602001600020600101908051906020019061081092919061141f565b508460026000898152602001908152602001600020600201908051906020019061083b92919061141f565b508360026000898152602001908152602001600020600301908051906020019061086692919061141f565b508260026000898152602001908152602001600020600401908051906020019061089192919061141f565b50816002600089815260200190815260200160002060050190805190602001906108bc92919061141f565b50806002600089815260200190815260200160002060060181905550336002600089815260200190815260200160002060070160006101000a81548173ffffffffffffffffffffffffffffffffffffffff021916908373ffffffffffffffffffffffffffffffffffffffff1602179055507f735c2c4d304503d488b4d7e1315441df5de1dc9b640ed32cf4688d39635cbd5f8686868686863360006040518080602001806020018060200180602001806020018981526020018873ffffffffffffffffffffffffffffffffffffffff1673ffffffffffffffffffffffffffffffffffffffff1681526020018715151515815260200186810386528e818151815260200191508051906020019080838360005b838110156109e95780820151818401526020810190506109ce565b50505050905090810190601f168015610a165780820380516001836020036101000a031916815260200191505b5086810385528d818151815260200191508051906020019080838360005b83811015610a4f578082015181840152602081019050610a34565b50505050905090810190601f168015610a7c5780820380516001836020036101000a031916815260200191505b5086810384528c818151815260200191508051906020019080838360005b83811015610ab5578082015181840152602081019050610a9a565b50505050905090810190601f168015610ae25780820380516001836020036101000a031916815260200191505b5086810383528b818151815260200191508051906020019080838360005b83811015610b1b578082015181840152602081019050610b00565b50505050905090810190601f168015610b485780820380516001836020036101000a031916815260200191505b5086810382528a818151815260200191508051906020019080838360005b83811015610b81578082015181840152602081019050610b66565b50505050905090810190601f168015610bae5780820380516001836020036101000a031916815260200191505b509d505050505050505050505050505060405180910390a150505050505050565b600160009054906101000a900473ffffffffffffffffffffffffffffffffffffffff1681565b60006002600083815260200190815260200160002060080160009054906101000a900473ffffffffffffffffffffffffffffffffffffffff169050919050565b60003073ffffffffffffffffffffffffffffffffffffffff163190503373ffffffffffffffffffffffffffffffffffffffff166108fc829081150290604051600060405180830381858888f19350505050158015610c97573d6000803e3d6000fd5b506002600083815260200190815260200160002060080160009054906101000a900473ffffffffffffffffffffffffffffffffffffffff166002600084815260200190815260200160002060070160006101000a81548173ffffffffffffffffffffffffffffffffffffffff021916908373ffffffffffffffffffffffffffffffffffffffff1602179055505050565b60608060608060606000600260008881526020019081526020016000206001018054600181600116156101000203166002900480601f016020809104026020016040519081016040528092919081815260200182805460018160011615610100020316600290048015610ddb5780601f10610db057610100808354040283529160200191610ddb565b820191906000526020600020905b815481529060010190602001808311610dbe57829003601f168201915b50505050509550600260008881526020019081526020016000206002018054600181600116156101000203166002900480601f016020809104026020016040519081016040528092919081815260200182805460018160011615610100020316600290048015610e8c5780601f10610e6157610100808354040283529160200191610e8c565b820191906000526020600020905b815481529060010190602001808311610e6f57829003601f168201915b50505050509450600260008881526020019081526020016000206003018054600181600116156101000203166002900480601f016020809104026020016040519081016040528092919081815260200182805460018160011615610100020316600290048015610f3d5780601f10610f1257610100808354040283529160200191610f3d565b820191906000526020600020905b815481529060010190602001808311610f2057829003601f168201915b50505050509350600260008881526020019081526020016000206004018054600181600116156101000203166002900480601f016020809104026020016040519081016040528092919081815260200182805460018160011615610100020316600290048015610fee5780601f10610fc357610100808354040283529160200191610fee565b820191906000526020600020905b815481529060010190602001808311610fd157829003601f168201915b50505050509250600260008881526020019081526020016000206005018054600181600116156101000203166002900480601f01602080910402602001604051908101604052809291908181526020018280546001816001161561010002031660029004801561109f5780601f106110745761010080835404028352916020019161109f565b820191906000526020600020905b81548152906001019060200180831161108257829003601f168201915b505050505091506002600088815260200190815260200160002060060154905091939550919395565b60005481565b3373ffffffffffffffffffffffffffffffffffffffff166108fc349081150290604051600060405180830381858888f19350505050158015611114573d6000803e3d6000fd5b50336002600083815260200190815260200160002060080160006101000a81548173ffffffffffffffffffffffffffffffffffffffff021916908373ffffffffffffffffffffffffffffffffffffffff1602179055507fb4960621cc5c4f992b28f8579f210ce52dec58f15441bcc596ae590135e4849d600260008381526020019081526020016000206000015460026000848152602001908152602001600020600101600260008581526020019081526020016000206002016002600086815260200190815260200160002060030160026000878152602001908152602001600020600601546002600088815260200190815260200160002060080160009054906101000a900473ffffffffffffffffffffffffffffffffffffffff16604051808781526020018060200180602001806020018681526020018573ffffffffffffffffffffffffffffffffffffffff1673ffffffffffffffffffffffffffffffffffffffff1681526020018481038452898181546001816001161561010002031660029004815260200191508054600181600116156101000203166002900480156113015780601f106112d657610100808354040283529160200191611301565b820191906000526020600020905b8154815290600101906020018083116112e457829003601f168201915b50508481038352888181546001816001161561010002031660029004815260200191508054600181600116156101000203166002900480156113845780601f1061135957610100808354040283529160200191611384565b820191906000526020600020905b81548152906001019060200180831161136757829003601f168201915b50508481038252878181546001816001161561010002031660029004815260200191508054600181600116156101000203166002900480156114075780601f106113dc57610100808354040283529160200191611407565b820191906000526020600020905b8154815290600101906020018083116113ea57829003601f168201915b5050995050505050505050505060405180910390a150565b828054600181600116156101000203166002900490600052602060002090601f016020900481019282601f1061146057805160ff191683800117855561148e565b8280016001018555821561148e579182015b8281111561148d578251825591602001919060010190611472565b5b50905061149b919061149f565b5090565b6114c191905b808211156114bd5760008160009055506001016114a5565b5090565b9056fea165627a7a72305820afae91065cbd45dbdc974fd7133d39535b4283e093b1b75bedad81900ffbbcb30029",
  "source": "pragma solidity ^0.5.0;\n\ncontract Samsung\n{\n    uint public productCount = 0;\n    address public productowner;\n\n    struct attributes\n    {     \n        uint            productid;\n        string          productname;\n        string          productheight;\n        string          productwidth;\n        string          productwarranty;\n        string          productothers;\n        uint            productprice;\n        address         productowner;\n        address         productbuyer;\n        bool            productpurchased;\n    }\n    //Mapping \n    mapping(uint =>attributes)productstruct;\n  \n  //events\n   event addproduct(       \n     \n        string          productname,\n        string          productheight,\n        string          productwidth,\n        string          productwarranty,\n        string          productothers,\n        uint            productprice,\n        address payable productowner,\n        bool            productpurchased\n        );\n \n\n    event buyproduct(\n         uint            productid,\n        string          productname,\n        string          productheight,\n        string          productwidth,\n        uint            productprice,\n        address         productbuyer\n\n        );\n    \n  \n constructor() public \n     {\n       productowner = msg.sender;\n\n     }\n\n    //Define modifier  \n      modifier isOwner\n     {\n        require(msg.sender == productowner);\n        _;\n     } \n    \n      // Add product details\n      function addproducts(uint _productid, string memory _productname, string memory _productheight,string memory _productwidth,string memory _productwarranty,string memory _productothers, uint _productprice )public isOwner  {\n        productstruct[_productid].productid = _productid;\n        productstruct[_productid].productname = _productname;\n        productstruct[_productid].productheight = _productheight;\n        productstruct[_productid].productwidth = _productwidth;\n        productstruct[_productid].productwarranty = _productwarranty;\n        productstruct[_productid].productothers = _productothers;\n        productstruct[_productid].productprice = _productprice;\n        productstruct[_productid].productowner = msg.sender;\n\n    //event triggering \n        emit addproduct(_productname, _productheight,_productwidth,_productwarranty,_productothers,_productprice, msg.sender, false);\n    }\n    \n    // Get details of product by giving productid\n     function getProduct(uint _productid) public view returns (string memory _productname,string memory _productheight,string memory _productwidth,string memory _productwarranty,string memory _productothers,uint _productprice)\n     {\n        _productname = productstruct[_productid].productname;\n        _productheight = productstruct[_productid].productheight;\n        _productwidth = productstruct[_productid].productwidth;\n        _productwarranty = productstruct[_productid].productwarranty;\n        _productothers = productstruct[_productid].productothers;\n        _productprice = productstruct[_productid].productprice;\n        \n     }\n\n\n    //To pay the amount to the contract by the buyer\n   function buyproducts(uint  _productid) public payable {\n         msg.sender.transfer(msg.value);\n         productstruct[_productid].productbuyer = msg.sender;\n         emit buyproduct(productstruct[_productid].productid,productstruct[_productid].productname,productstruct[_productid].productheight,productstruct[_productid].productwidth,productstruct[_productid].productprice, productstruct[_productid].productbuyer);\n\n    }\n    \n    \n    //Get the Buyer Details\n    function getBuyer(uint  _productid) public view returns(address _productbuyer){\n        _productbuyer = productstruct[_productid].productbuyer;\n    }\n  \n    \n    //Receive the amount from the contract to the Productowner\n    function receiveSeller(uint _productid) public payable{\n        uint _amt=address(this).balance;        \n        msg.sender.transfer(_amt);\n        productstruct[_productid].productowner = productstruct[_productid].productbuyer;\n        \n    }\n}\n\n",
  "sourcePath": "/home/user/CEDPROJECT/CED ONLINE PJT/SAMSUNG/Samsung/contracts/samsung.sol",
  "compiler": {
    "name": "solc",
    "version": "0.5.8+commit.23d335f2.Emscripten.clang"
  },
  "schemaVersion": "3.0.16",
  "updatedAt": "2020-07-31T08:30:07.426Z",
  "devdoc": {
    "methods": {}
  },
  "userdoc": {
    "methods": {}
  }
}